{"abi":[{"type":"constructor","inputs":[{"name":"_antToken","type":"address","internalType":"address"}],"stateMutability":"nonpayable"},{"type":"function","name":"CANDIDATES_PER_POOL","inputs":[],"outputs":[{"name":"","type":"uint8","internalType":"uint8"}],"stateMutability":"view"},{"type":"function","name":"MAX_MERKLE_DEPTH","inputs":[],"outputs":[{"name":"","type":"uint8","internalType":"uint8"}],"stateMutability":"view"},{"type":"function","name":"antToken","inputs":[],"outputs":[{"name":"","type":"address","internalType":"contract IERC20"}],"stateMutability":"view"},{"type":"function","name":"estimateMerkleTreeCost","inputs":[{"name":"depth","type":"uint8","internalType":"uint8"},{"name":"poolCommitments","type":"tuple[]","internalType":"struct MerklePaymentVault.PoolCommitment[]","components":[{"name":"poolHash","type":"bytes32","internalType":"bytes32"},{"name":"candidates","type":"tuple[16]","internalType":"struct MerklePaymentVault.CandidateNode[16]","components":[{"name":"rewardsAddress","type":"address","internalType":"address"},{"name":"metrics","type":"tuple","internalType":"struct MerklePaymentVault.QuotingMetrics","components":[{"name":"dataType","type":"uint8","internalType":"uint8"},{"name":"dataSize","type":"uint256","internalType":"uint256"},{"name":"closeRecordsStored","type":"uint256","internalType":"uint256"},{"name":"recordsPerType","type":"tuple[]","internalType":"struct MerklePaymentVault.Record[]","components":[{"name":"dataType","type":"uint8","internalType":"uint8"},{"name":"records","type":"uint256","internalType":"uint256"}]},{"name":"maxRecords","type":"uint256","internalType":"uint256"},{"name":"receivedPaymentCount","type":"uint256","internalType":"uint256"},{"name":"liveTime","type":"uint256","internalType":"uint256"},{"name":"networkDensity","type":"uint256","internalType":"uint256"},{"name":"networkSize","type":"uint256","internalType":"uint256"}]}]}]},{"name":"merklePaymentTimestamp","type":"uint64","internalType":"uint64"}],"outputs":[{"name":"totalAmount","type":"uint256","internalType":"uint256"}],"stateMutability":"view"},{"type":"function","name":"getPaymentInfo","inputs":[{"name":"winnerPoolHash","type":"bytes32","internalType":"bytes32"}],"outputs":[{"name":"info","type":"tuple","internalType":"struct MerklePaymentVault.PaymentInfo","components":[{"name":"depth","type":"uint8","internalType":"uint8"},{"name":"merklePaymentTimestamp","type":"uint64","internalType":"uint64"},{"name":"paidNodeAddresses","type":"tuple[]","internalType":"struct MerklePaymentVault.PaidNode[]","components":[{"name":"rewardsAddress","type":"address","internalType":"address"},{"name":"poolIndex","type":"uint8","internalType":"uint8"}]}]}],"stateMutability":"view"},{"type":"function","name":"payForMerkleTree","inputs":[{"name":"depth","type":"uint8","internalType":"uint8"},{"name":"poolCommitments","type":"tuple[]","internalType":"struct MerklePaymentVault.PoolCommitment[]","components":[{"name":"poolHash","type":"bytes32","internalType":"bytes32"},{"name":"candidates","type":"tuple[16]","internalType":"struct MerklePaymentVault.CandidateNode[16]","components":[{"name":"rewardsAddress","type":"address","internalType":"address"},{"name":"metrics","type":"tuple","internalType":"struct MerklePaymentVault.QuotingMetrics","components":[{"name":"dataType","type":"uint8","internalType":"uint8"},{"name":"dataSize","type":"uint256","internalType":"uint256"},{"name":"closeRecordsStored","type":"uint256","internalType":"uint256"},{"name":"recordsPerType","type":"tuple[]","internalType":"struct MerklePaymentVault.Record[]","components":[{"name":"dataType","type":"uint8","internalType":"uint8"},{"name":"records","type":"uint256","internalType":"uint256"}]},{"name":"maxRecords","type":"uint256","internalType":"uint256"},{"name":"receivedPaymentCount","type":"uint256","internalType":"uint256"},{"name":"liveTime","type":"uint256","internalType":"uint256"},{"name":"networkDensity","type":"uint256","internalType":"uint256"},{"name":"networkSize","type":"uint256","internalType":"uint256"}]}]}]},{"name":"merklePaymentTimestamp","type":"uint64","internalType":"uint64"}],"outputs":[{"name":"winnerPoolHash","type":"bytes32","internalType":"bytes32"},{"name":"totalAmount","type":"uint256","internalType":"uint256"}],"stateMutability":"nonpayable"},{"type":"function","name":"payments","inputs":[{"name":"","type":"bytes32","internalType":"bytes32"}],"outputs":[{"name":"depth","type":"uint8","internalType":"uint8"},{"name":"merklePaymentTimestamp","type":"uint64","internalType":"uint64"}],"stateMutability":"view"},{"type":"event","name":"MerklePaymentMade","inputs":[{"name":"winnerPoolHash","type":"bytes32","indexed":true,"internalType":"bytes32"},{"name":"depth","type":"uint8","indexed":false,"internalType":"uint8"},{"name":"totalAmount","type":"uint256","indexed":false,"internalType":"uint256"},{"name":"merklePaymentTimestamp","type":"uint64","indexed":false,"internalType":"uint64"}],"anonymous":false},{"type":"error","name":"DepthTooLarge","inputs":[{"name":"depth","type":"uint8","internalType":"uint8"},{"name":"max","type":"uint8","internalType":"uint8"}]},{"type":"error","name":"InsufficientAllowance","inputs":[{"name":"have","type":"uint256","internalType":"uint256"},{"name":"need","type":"uint256","internalType":"uint256"}]},{"type":"error","name":"InsufficientBalance","inputs":[{"name":"have","type":"uint256","internalType":"uint256"},{"name":"need","type":"uint256","internalType":"uint256"}]},{"type":"error","name":"PaymentAlreadyExists","inputs":[{"name":"poolHash","type":"bytes32","internalType":"bytes32"}]},{"type":"error","name":"PaymentNotFound","inputs":[{"name":"poolHash","type":"bytes32","internalType":"bytes32"}]},{"type":"error","name":"TransferFailed","inputs":[]},{"type":"error","name":"WrongCandidateCount","inputs":[{"name":"poolIdx","type":"uint256","internalType":"uint256"},{"name":"expected","type":"uint256","internalType":"uint256"},{"name":"got","type":"uint256","internalType":"uint256"}]},{"type":"error","name":"WrongPoolCount","inputs":[{"name":"expected","type":"uint256","internalType":"uint256"},{"name":"got","type":"uint256","internalType":"uint256"}]}],"bytecode":{"object":"0x60a0346100be57601f610e6e38819003918201601f19168301916001600160401b038311848410176100c3578084926020946040528339810103126100be57516001600160a01b038116908190036100be57801561007957608052604051610d9490816100da823960805181818161029101526107a10152f35b60405162461bcd60e51b815260206004820152601560248201527f496e76616c696420746f6b656e206164647265737300000000000000000000006044820152606490fd5b600080fd5b634e487b7160e01b600052604160045260246000fdfe608080604052600436101561001357600080fd5b60003560e01c908163043b7587146108d9575080630716326d1461089a5780630f339e04146107ec578063137978c3146107d05780634ec42e8e1461078b5780635e271e17146101f25763a75e9b191461006c57600080fd5b346101ed5760203660031901126101ed5760043560606040805161008f816109ef565b60008152600060208201520152806000526000602052604060002090604051906100b8826109ef565b600183549360ff851684526001600160401b03602085019560081c168552019081546100e381610a77565b926100f16040519485610a0a565b818452602084019060005260206000206000915b8383106101b757505050506040830191825260ff835116156101a3576001600160401b038484846040519384936020855260ff6080860194511660208601525116604084015251906060808401528151809152602060a0840192019060005b818110610172575050500390f35b825180516001600160a01b0316855260209081015160ff168186015286955060409094019390920191600101610164565b63272f9fc160e01b60005260045260246000fd5b6001602081926040516101c9816109d4565b60ff8654858060a01b038116835260a01c1683820152815201920192019190610105565b600080fd5b346101ed57610200366108f3565b92919060ff831692600c84116107715761021990610a8e565b80820361075a575060005b8181106107385750906102429161023c853383610aa9565b9161097b565b9182359283600052600060205260ff6040600020541661072357602081019261027c816102776102728786610995565b610b16565b6109ab565b6040516370a0823160e01b81523360048201527f00000000000000000000000000000000000000000000000000000000000000006001600160a01b031696919291906020816024818b5afa908115610632576000916106f1575b508381106106d85750604051636eb1769f60e11b81523360048201523060248201526020816044818b5afa908115610632576000916106a6575b5083811061068d575061032282610a77565b926103306040519485610a0a565b828452601f1961033f84610a77565b01366020860137604051956102006103578189610a0a565b36883760405160208101904482528460408201526001600160401b0360c01b8360c01b1660608201526048815261038f606882610a0a565b51902098600096879a5b86891080610683575b1561041f57604051602081019182528c6040820152604081526103c6606082610a0a565b5190209a600f8c168a6103d98282610b05565b51156103f1575b50506103eb90610d4f565b9a610399565b99816001610406610417946103eb969e610b05565b52610411828c610a4b565b52610d4f565b98908a6103e0565b509086918a878a0361063e576000878152602081905260409020805468ffffffffffffffffff19168917600887901b68ffffffffffffffff001617815593926104688988610a2b565b92600160009601955b8a81106104c8575060408989817f89f0ad3859fec321e325bcc553fe234bcad374789a86f7ba932067f3f05affec60608f6001600160401b038e88519283528660208401521687820152a282519182526020820152f35b60ff6104d48288610a4b565b5116906104ea826104e58786610995565b610a5f565b356001600160a01b038116908190036101ed576040516323b872dd60e01b815233600482015281602482015287604482015260208160648160008a5af1908115610632576000916105f1575b50156105e05760405190610549826109d4565b815260208101928352885492680100000000000000008410156105ca5760018401808b558410156105b4576001938a60005260206000200191848060a01b0390511682549160ff60a01b905160a01b16916affffffffffffffffffffff60a81b161717905501610471565b634e487b7160e01b600052603260045260246000fd5b634e487b7160e01b600052604160045260246000fd5b6312171d8360e31b60005260046000fd5b6020813d821161062a575b8161060960209383610a0a565b81010312610626575190811515820361062357508e610536565b80fd5b5080fd5b3d91506105fc565b6040513d6000823e3d90fd5b60405162461bcd60e51b815260206004820152601f60248201527f4661696c656420746f2073656c65637420656e6f7567682077696e6e657273006044820152606490fd5b5060648c106103a2565b839063054365bb60e31b60005260045260245260446000fd5b906020823d6020116106d0575b816106c060209383610a0a565b8101031261062357505188610310565b3d91506106b3565b839063cf47918160e01b60005260045260245260446000fd5b906020823d60201161071b575b8161070b60209383610a0a565b81010312610623575051886102d6565b3d91506106fe565b83639d8c19ed60e01b60005260045260246000fd5b80610753610749600193858761097b565b6020810190610995565b5001610224565b6347fe11b560e11b60005260045260245260446000fd5b8363164b5f0360e11b600052600452600c60245260446000fd5b346101ed5760003660031901126101ed576040517f00000000000000000000000000000000000000000000000000000000000000006001600160a01b03168152602090f35b346101ed5760003660031901126101ed57602060405160108152f35b346101ed576107fa366108f3565b60ff841693600c85116108805761081090610a8e565b808303610867575060005b82811061084f5760206108478661027761027261083e898961023c8a3383610aa9565b85810190610995565b604051908152f35b80610860610749600193868861097b565b500161081b565b90506347fe11b560e11b60005260045260245260446000fd5b8463164b5f0360e11b600052600452600c60245260446000fd5b346101ed5760203660031901126101ed576004356000526000602052604080600020546001600160401b0382519160ff8116835260081c166020820152f35b346101ed5760003660031901126101ed5780600c60209252f35b60606003198201126101ed5760043560ff811681036101ed57916024356001600160401b0381116101ed57826023820112156101ed578060040135926001600160401b0384116101ed5760248460051b830101116101ed5760240191906044356001600160401b03811681036101ed5790565b903590603e19813603018212156101ed570190565b908210156105b4576109929160051b810190610966565b90565b9035906101fe19813603018212156101ed570190565b818102929181159184041417156109be57565b634e487b7160e01b600052601160045260246000fd5b604081019081106001600160401b038211176105ca57604052565b606081019081106001600160401b038211176105ca57604052565b90601f801991011681019081106001600160401b038211176105ca57604052565b8115610a35570490565b634e487b7160e01b600052601260045260246000fd5b80518210156105b45760209160051b010190565b60108210156105b4576109929160051b810190610966565b6001600160401b0381116105ca5760051b60200190565b60ff600191160160ff81116109be57607f600191821c161b90565b916040519060208201924484524260408401526bffffffffffffffffffffffff199060601b1660608301526001600160401b0360c01b9060c01b166074820152605c8152610af8607c82610a0a565b5190208115610a35570690565b9060108110156105b45760051b0190565b60405190610200610b278184610a0a565b36833760005b60108110610bf257505060015b60108110610b5d575061010060e082015191015181018091116109be5760011c90565b9190610b698382610b05565b5191835b8015801580610bd3575b15610bba576000198201918083116109be57610b9e610b968487610b05565b519186610b05565b5215610b6d57634e487b7160e01b600052601160045260246000fd5b5092610bcc6001939495929585610b05565b5201610b3a565b5060001982018281116109be57610beb869186610b05565b5111610b77565b610bfc8183610a5f565b60208101359061011e19813603018212156101ed5701906000608083013580610cff575b5060640191826064116109be5760a08101356032811115610cfa575060325b606401806064116109be5760649160e0810135151580610cec575b610cb1575b6020013591600a830290838204600a14841517156109be57610277620f424093610277600198610c8e956109ab565b04908115610ca9575b50610ca28286610b05565b5201610b2d565b905038610c97565b916101008301356103e8811115610cd15750506020605a925b9050610c5f565b9080939111610ce3575b602090610cca565b605f9250610cdb565b506101008101351515610c5a565b610c3f565b90604084013590606482029180830460641490151715610d3b575090610d2491610a2b565b60648111610d33575b38610c20565b506064610d2d565b634e487b7160e01b81526011600452602490fd5b60001981146109be576001019056fea26469706673582212206a2c4cf4e4519da0f9bc7cfd56fded56fd03a6a0bc2125506edf472979f993aa64736f6c634300081c0033","linkReferences":{}},"methodIdentifiers":{"CANDIDATES_PER_POOL()":"137978c3","MAX_MERKLE_DEPTH()":"043b7587","antToken()":"4ec42e8e","estimateMerkleTreeCost(uint8,(bytes32,(address,(uint8,uint256,uint256,(uint8,uint256)[],uint256,uint256,uint256,uint256,uint256))[16])[],uint64)":"0f339e04","getPaymentInfo(bytes32)":"a75e9b19","payForMerkleTree(uint8,(bytes32,(address,(uint8,uint256,uint256,(uint8,uint256)[],uint256,uint256,uint256,uint256,uint256))[16])[],uint64)":"5e271e17","payments(bytes32)":"0716326d"},"id":0}