{
  "_format": "hh-sol-artifact-1",
  "contractName": "PaymentVault",
  "sourceName": "contracts/PaymentVaultNoProxyV5.sol",
  "abi": [
    {
      "inputs": [
        {
          "internalType": "contract IERC20",
          "name": "_antToken",
          "type": "address"
        }
      ],
      "stateMutability": "nonpayable",
      "type": "constructor"
    },
    {
      "inputs": [
        {
          "internalType": "address",
          "name": "target",
          "type": "address"
        }
      ],
      "name": "AddressEmptyCode",
      "type": "error"
    },
    {
      "inputs": [
        {
          "internalType": "address",
          "name": "account",
          "type": "address"
        }
      ],
      "name": "AddressInsufficientBalance",
      "type": "error"
    },
    {
      "inputs": [],
      "name": "AntTokenNull",
      "type": "error"
    },
    {
      "inputs": [],
      "name": "BatchLimitExceeded",
      "type": "error"
    },
    {
      "inputs": [],
      "name": "FailedInnerCall",
      "type": "error"
    },
    {
      "inputs": [],
      "name": "InvalidInputLength",
      "type": "error"
    },
    {
      "inputs": [
        {
          "internalType": "address",
          "name": "token",
          "type": "address"
        }
      ],
      "name": "SafeERC20FailedOperation",
      "type": "error"
    },
    {
      "anonymous": false,
      "inputs": [
        {
          "indexed": true,
          "internalType": "address",
          "name": "rewardsAddress",
          "type": "address"
        },
        {
          "indexed": true,
          "internalType": "uint256",
          "name": "amount",
          "type": "uint256"
        },
        {
          "indexed": true,
          "internalType": "bytes32",
          "name": "quoteHash",
          "type": "bytes32"
        }
      ],
      "name": "DataPaymentMade",
      "type": "event"
    },
    {
      "inputs": [],
      "name": "antToken",
      "outputs": [
        {
          "internalType": "contract IERC20",
          "name": "",
          "type": "address"
        }
      ],
      "stateMutability": "view",
      "type": "function"
    },
    {
      "inputs": [],
      "name": "batchLimit",
      "outputs": [
        {
          "internalType": "uint256",
          "name": "",
          "type": "uint256"
        }
      ],
      "stateMutability": "view",
      "type": "function"
    },
    {
      "inputs": [
        {
          "internalType": "bytes32",
          "name": "",
          "type": "bytes32"
        }
      ],
      "name": "completedPayments",
      "outputs": [
        {
          "internalType": "bytes16",
          "name": "rewardsAddress",
          "type": "bytes16"
        },
        {
          "internalType": "uint128",
          "name": "amount",
          "type": "uint128"
        }
      ],
      "stateMutability": "view",
      "type": "function"
    },
    {
      "inputs": [
        {
          "components": [
            {
              "internalType": "enum IPaymentVault.DataType",
              "name": "dataType",
              "type": "uint8"
            },
            {
              "internalType": "uint256",
              "name": "dataSize",
              "type": "uint256"
            },
            {
              "internalType": "uint256",
              "name": "closeRecordsStored",
              "type": "uint256"
            },
            {
              "components": [
                {
                  "internalType": "enum IPaymentVault.DataType",
                  "name": "dataType",
                  "type": "uint8"
                },
                {
                  "internalType": "uint256",
                  "name": "records",
                  "type": "uint256"
                }
              ],
              "internalType": "struct IPaymentVault.Record[]",
              "name": "recordsPerType",
              "type": "tuple[]"
            },
            {
              "internalType": "uint256",
              "name": "maxRecords",
              "type": "uint256"
            },
            {
              "internalType": "uint256",
              "name": "receivedPaymentCount",
              "type": "uint256"
            },
            {
              "internalType": "uint256",
              "name": "liveTime",
              "type": "uint256"
            },
            {
              "internalType": "uint256",
              "name": "networkDensity",
              "type": "uint256"
            },
            {
              "internalType": "uint256",
              "name": "networkSize",
              "type": "uint256"
            }
          ],
          "internalType": "struct IPaymentVault.QuotingMetrics[]",
          "name": "_metrics",
          "type": "tuple[]"
        }
      ],
      "name": "getQuote",
      "outputs": [
        {
          "internalType": "uint256[]",
          "name": "prices",
          "type": "uint256[]"
        }
      ],
      "stateMutability": "pure",
      "type": "function"
    },
    {
      "inputs": [
        {
          "components": [
            {
              "internalType": "address",
              "name": "rewardsAddress",
              "type": "address"
            },
            {
              "internalType": "uint256",
              "name": "amount",
              "type": "uint256"
            },
            {
              "internalType": "bytes32",
              "name": "quoteHash",
              "type": "bytes32"
            }
          ],
          "internalType": "struct IPaymentVault.DataPayment[]",
          "name": "_payments",
          "type": "tuple[]"
        }
      ],
      "name": "payForQuotes",
      "outputs": [],
      "stateMutability": "nonpayable",
      "type": "function"
    },
    {
      "inputs": [],
      "name": "requiredPaymentVerificationLength",
      "outputs": [
        {
          "internalType": "uint256",
          "name": "",
          "type": "uint256"
        }
      ],
      "stateMutability": "view",
      "type": "function"
    },
    {
      "inputs": [
        {
          "components": [
            {
              "components": [
                {
                  "internalType": "enum IPaymentVault.DataType",
                  "name": "dataType",
                  "type": "uint8"
                },
                {
                  "internalType": "uint256",
                  "name": "dataSize",
                  "type": "uint256"
                },
                {
                  "internalType": "uint256",
                  "name": "closeRecordsStored",
                  "type": "uint256"
                },
                {
                  "components": [
                    {
                      "internalType": "enum IPaymentVault.DataType",
                      "name": "dataType",
                      "type": "uint8"
                    },
                    {
                      "internalType": "uint256",
                      "name": "records",
                      "type": "uint256"
                    }
                  ],
                  "internalType": "struct IPaymentVault.Record[]",
                  "name": "recordsPerType",
                  "type": "tuple[]"
                },
                {
                  "internalType": "uint256",
                  "name": "maxRecords",
                  "type": "uint256"
                },
                {
                  "internalType": "uint256",
                  "name": "receivedPaymentCount",
                  "type": "uint256"
                },
                {
                  "internalType": "uint256",
                  "name": "liveTime",
                  "type": "uint256"
                },
                {
                  "internalType": "uint256",
                  "name": "networkDensity",
                  "type": "uint256"
                },
                {
                  "internalType": "uint256",
                  "name": "networkSize",
                  "type": "uint256"
                }
              ],
              "internalType": "struct IPaymentVault.QuotingMetrics",
              "name": "metrics",
              "type": "tuple"
            },
            {
              "internalType": "address",
              "name": "rewardsAddress",
              "type": "address"
            },
            {
              "internalType": "bytes32",
              "name": "quoteHash",
              "type": "bytes32"
            }
          ],
          "internalType": "struct IPaymentVault.PaymentVerification[]",
          "name": "_payments",
          "type": "tuple[]"
        }
      ],
      "name": "verifyPayment",
      "outputs": [
        {
          "components": [
            {
              "internalType": "bytes32",
              "name": "quoteHash",
              "type": "bytes32"
            },
            {
              "internalType": "uint256",
              "name": "amountPaid",
              "type": "uint256"
            },
            {
              "internalType": "bool",
              "name": "isValid",
              "type": "bool"
            }
          ],
          "internalType": "struct IPaymentVault.PaymentVerificationResult[3]",
          "name": "verificationResults",
          "type": "tuple[3]"
        }
      ],
      "stateMutability": "view",
      "type": "function"
    }
  ],
  "bytecode": "0x6080604052348015600f57600080fd5b506040516111c03803806111c0833981016040819052602c916076565b6001600160a01b038116605257604051632d06160b60e21b815260040160405180910390fd5b600080546001600160a01b0319166001600160a01b039290921691909117905560a4565b600060208284031215608757600080fd5b81516001600160a01b0381168114609d57600080fd5b9392505050565b61110d806100b36000396000f3fe608060405234801561001057600080fd5b506004361061007d5760003560e01c80634ec42e8e1161005b5780634ec42e8e146100e2578063b6c2141b1461010d578063c7170bb614610122578063fe3c806e1461012a57600080fd5b806338f03e75146100825780633ffbb252146100ab578063474740b1146100cb575b600080fd5b610095610090366004610c06565b610188565b6040516100a29190610c48565b60405180910390f35b6100be6100b9366004610c06565b610538565b6040516100a29190610c98565b6100d461020081565b6040519081526020016100a2565b6000546100f5906001600160a01b031681565b6040516001600160a01b0390911681526020016100a2565b61012061011b366004610cdb565b6105c1565b005b6100d4600581565b610160610138366004610d52565b600160205260009081526040902054608081901b90600160801b90046001600160801b031682565b604080516001600160801b031990931683526001600160801b039091166020830152016100a2565b610190610adf565b600582146101b157604051637db491eb60e01b815260040160405180910390fd5b60006101bd8484610708565b90506000805b60038110156101e3576001828111156101da578092505b506001016101c3565b5060008060005b60038110156102615760006001600087846003811061020b5761020b610d6b565b602002015160400151815260200190815260200160002060000160109054906101000a90046001600160801b03166001600160801b03161115610259578261025281610d97565b9350508091505b6001016101ea565b506000826001036102f85760006001600087856003811061028457610284610d6b565b602090810291909101516040908101518352828201939093529082016000208251808401909352546001600160801b0319608082901b168352600160801b90046001600160801b03169082015290506102de85600a610db0565b81602001516001600160801b0316106102f657600191505b505b60005b600381101561052c5760006001600088846003811061031c5761031c610d6b565b6020908102919091015160409081015183528282019390935290820160009081208351808501909452546001600160801b0319608082901b168452600160801b90046001600160801b03169183019190915290915060019080851561042f5760208401516001600160801b0316156104245761039989600a610db0565b84602001516001600160801b0316101591506103dc8a86600381106103c0576103c0610d6b565b6020020151602001516001600160801b031960609190911b1690565b84516001600160801b0319908116911614801561041d575060008a866003811061040857610408610d6b565b6020020151602001516001600160a01b031614155b90506104b3565b5060019050806104b3565b60208401516001600160801b03161580159061045857508284602001516001600160801b031610155b915061046f8a86600381106103c0576103c0610d6b565b84516001600160801b031990811691161480156104b0575060008a866003811061049b5761049b610d6b565b6020020151602001516001600160a01b031614155b90505b600060405180606001604052808c88600381106104d2576104d2610d6b565b602002015160400151815260200186602001516001600160801b031681526020018480156104fd5750835b151590529050808c876003811061051657610516610d6b565b60200201525050600190930192506102fb915050565b50505050505092915050565b606060008267ffffffffffffffff81111561055557610555610dc7565b60405190808252806020026020018201604052801561057e578160200160208202803683370190505b50905060005b838110156105b957600060019050808383815181106105a5576105a5610d6b565b602090810291909101015250600101610584565b509392505050565b806102008111156105e557604051630d67f41160e21b815260040160405180910390fd5b60005b81811015610702573684848381811061060357610603610d6b565b60600291909101915061063790503361061f6020840184610df9565b6000546001600160a01b0316919060208501356108ea565b60408051808201909152806106626106526020850185610df9565b60601b6001600160801b03191690565b6001600160801b0319168152602083810180356001600160801b03818116948401949094526040808701356000818152600186529190912086519690940151909416600160801b0260809590951c949094179091559091906106c49084610df9565b6001600160a01b03167ff998960b1c6f0e0e89b7bbe6b6fbf3e03e6f08eee5b8430877d8adb8e149d58060405160405180910390a4506001016105e8565b50505050565b610710610b1e565b60005b828110156108e25760006001600086868581811061073357610733610d6b565b90506020028101906107459190610e14565b60409081013582526020808301939093529081016000908120825180840184529054608081901b6001600160801b03191682526001600160801b03600160801b9182900481168387019081528951860151855260019096529390922054935190945092048116911611156107fd576020830180516040850152835190528484838181106107d4576107d4610d6b565b90506020028101906107e69190610e14565b6107ef90610f94565b8360005b60200201526108d9565b6020808401516040908101516000908152600183522054908201516001600160801b03600160801b9092048216911610610870576020830151604084015284848381811061084d5761084d610d6b565b905060200281019061085f9190610e14565b61086890610f94565b8360016107f3565b60408084015181015160009081526001602090815291902054908201516001600160801b03600160801b90920482169116106108d9578484838181106108b8576108b8610d6b565b90506020028101906108ca9190610e14565b6108d390610f94565b60408401525b50600101610713565b505b92915050565b604080516001600160a01b038581166024830152848116604483015260648083018590528351808403909101815260849092019092526020810180516001600160e01b03166323b872dd60e01b17905261070291869190600090610950908416836109a8565b905080516000141580156109755750808060200190518101906109739190611086565b155b156109a357604051635274afe760e01b81526001600160a01b03841660048201526024015b60405180910390fd5b505050565b60606109b6838360006109bd565b9392505050565b6060814710156109e25760405163cd78605960e01b815230600482015260240161099a565b600080856001600160a01b031684866040516109fe91906110a8565b60006040518083038185875af1925050503d8060008114610a3b576040519150601f19603f3d011682016040523d82523d6000602084013e610a40565b606091505b5091509150610a50868383610a5a565b9695505050505050565b606082610a6f57610a6a82610ab6565b6109b6565b8151158015610a8657506001600160a01b0384163b155b15610aaf57604051639996b31560e01b81526001600160a01b038516600482015260240161099a565b50806109b6565b805115610ac65780518082602001fd5b604051630a12f52160e11b815260040160405180910390fd5b60405180606001604052806003905b6040805160608101825260008082526020808301829052928201528252600019909201910181610aee5790505090565b60405180606001604052806003905b610b35610b4b565b815260200190600190039081610b2d5790505090565b6040518060600160405280610ba6604080516101208101909152806000815260200160008152602001600081526020016060815260200160008152602001600081526020016000815260200160008152602001600081525090565b815260006020820181905260409091015290565b60008083601f840112610bcc57600080fd5b50813567ffffffffffffffff811115610be457600080fd5b6020830191508360208260051b8501011115610bff57600080fd5b9250929050565b60008060208385031215610c1957600080fd5b823567ffffffffffffffff811115610c3057600080fd5b610c3c85828601610bba565b90969095509350505050565b6101208101818360005b6003811015610c8f578151805184526020810151602085015260408101511515604085015250606083019250602082019150600181019050610c52565b50505092915050565b602080825282518282018190526000918401906040840190835b81811015610cd0578351835260209384019390920191600101610cb2565b509095945050505050565b60008060208385031215610cee57600080fd5b823567ffffffffffffffff811115610d0557600080fd5b8301601f81018513610d1657600080fd5b803567ffffffffffffffff811115610d2d57600080fd5b856020606083028401011115610d4257600080fd5b6020919091019590945092505050565b600060208284031215610d6457600080fd5b5035919050565b634e487b7160e01b600052603260045260246000fd5b634e487b7160e01b600052601160045260246000fd5b600060018201610da957610da9610d81565b5060010190565b80820281158282048414176108e4576108e4610d81565b634e487b7160e01b600052604160045260246000fd5b80356001600160a01b0381168114610df457600080fd5b919050565b600060208284031215610e0b57600080fd5b6109b682610ddd565b60008235605e19833603018112610e2a57600080fd5b9190910192915050565b6040805190810167ffffffffffffffff81118282101715610e5757610e57610dc7565b60405290565b6040516060810167ffffffffffffffff81118282101715610e5757610e57610dc7565b604051610120810167ffffffffffffffff81118282101715610e5757610e57610dc7565b604051601f8201601f1916810167ffffffffffffffff81118282101715610ecd57610ecd610dc7565b604052919050565b803560048110610df457600080fd5b600082601f830112610ef557600080fd5b813567ffffffffffffffff811115610f0f57610f0f610dc7565b610f1e60208260051b01610ea4565b8082825260208201915060208360061b860101925085831115610f4057600080fd5b602085015b83811015610f8a5760408188031215610f5d57600080fd5b610f65610e34565b610f6e82610ed5565b8152602082810135818301529084529290920191604001610f45565b5095945050505050565b600060608236031215610fa657600080fd5b610fae610e5d565b823567ffffffffffffffff811115610fc557600080fd5b8301610120368290031215610fd957600080fd5b610fe1610e80565b610fea82610ed5565b81526020828101359082015260408083013590820152606082013567ffffffffffffffff81111561101a57600080fd5b61102636828501610ee4565b6060830152506080828101359082015260a0808301359082015260c0808301359082015260e080830135908201526101009182013591810191909152815261107060208401610ddd565b6020820152604092830135928101929092525090565b60006020828403121561109857600080fd5b815180151581146109b657600080fd5b6000825160005b818110156110c957602081860181015185830152016110af565b50600092019182525091905056fea2646970667358221220fcd13787c21d050f1de0d0ef3aa80da9fb42e1ccad9c768fa3a530be5da5897064736f6c634300081c0033",
  "linkReferences": {},
  "deployedLinkReferences": {}
}