{
  "_format": "hh-sol-artifact-1",
  "contractName": "PaymentVault",
  "sourceName": "contracts/PaymentVaultNoProxyV2.sol",
  "abi": [
    {
      "inputs": [
        {
          "internalType": "contract IERC20",
          "name": "_antToken",
          "type": "address"
        }
      ],
      "stateMutability": "nonpayable",
      "type": "constructor"
    },
    {
      "inputs": [
        {
          "internalType": "address",
          "name": "target",
          "type": "address"
        }
      ],
      "name": "AddressEmptyCode",
      "type": "error"
    },
    {
      "inputs": [
        {
          "internalType": "address",
          "name": "account",
          "type": "address"
        }
      ],
      "name": "AddressInsufficientBalance",
      "type": "error"
    },
    {
      "inputs": [],
      "name": "AntTokenNull",
      "type": "error"
    },
    {
      "inputs": [],
      "name": "BatchLimitExceeded",
      "type": "error"
    },
    {
      "inputs": [],
      "name": "FailedInnerCall",
      "type": "error"
    },
    {
      "inputs": [],
      "name": "InvalidInputLength",
      "type": "error"
    },
    {
      "inputs": [
        {
          "internalType": "address",
          "name": "token",
          "type": "address"
        }
      ],
      "name": "SafeERC20FailedOperation",
      "type": "error"
    },
    {
      "anonymous": false,
      "inputs": [
        {
          "indexed": true,
          "internalType": "address",
          "name": "rewardsAddress",
          "type": "address"
        },
        {
          "indexed": true,
          "internalType": "uint256",
          "name": "amount",
          "type": "uint256"
        },
        {
          "indexed": true,
          "internalType": "bytes32",
          "name": "quoteHash",
          "type": "bytes32"
        }
      ],
      "name": "DataPaymentMade",
      "type": "event"
    },
    {
      "inputs": [],
      "name": "antToken",
      "outputs": [
        {
          "internalType": "contract IERC20",
          "name": "",
          "type": "address"
        }
      ],
      "stateMutability": "view",
      "type": "function"
    },
    {
      "inputs": [],
      "name": "batchLimit",
      "outputs": [
        {
          "internalType": "uint256",
          "name": "",
          "type": "uint256"
        }
      ],
      "stateMutability": "view",
      "type": "function"
    },
    {
      "inputs": [
        {
          "internalType": "bytes32",
          "name": "",
          "type": "bytes32"
        }
      ],
      "name": "completedPayments",
      "outputs": [
        {
          "internalType": "bytes16",
          "name": "rewardsAddress",
          "type": "bytes16"
        },
        {
          "internalType": "uint128",
          "name": "amount",
          "type": "uint128"
        }
      ],
      "stateMutability": "view",
      "type": "function"
    },
    {
      "inputs": [
        {
          "components": [
            {
              "internalType": "enum IPaymentVault.DataType",
              "name": "dataType",
              "type": "uint8"
            },
            {
              "internalType": "uint256",
              "name": "dataSize",
              "type": "uint256"
            },
            {
              "internalType": "uint256",
              "name": "closeRecordsStored",
              "type": "uint256"
            },
            {
              "components": [
                {
                  "internalType": "enum IPaymentVault.DataType",
                  "name": "dataType",
                  "type": "uint8"
                },
                {
                  "internalType": "uint256",
                  "name": "records",
                  "type": "uint256"
                }
              ],
              "internalType": "struct IPaymentVault.Record[]",
              "name": "recordsPerType",
              "type": "tuple[]"
            },
            {
              "internalType": "uint256",
              "name": "maxRecords",
              "type": "uint256"
            },
            {
              "internalType": "uint256",
              "name": "receivedPaymentCount",
              "type": "uint256"
            },
            {
              "internalType": "uint256",
              "name": "liveTime",
              "type": "uint256"
            },
            {
              "internalType": "uint256",
              "name": "networkDensity",
              "type": "uint256"
            },
            {
              "internalType": "uint256",
              "name": "networkSize",
              "type": "uint256"
            }
          ],
          "internalType": "struct IPaymentVault.QuotingMetrics[]",
          "name": "_metrics",
          "type": "tuple[]"
        }
      ],
      "name": "getQuote",
      "outputs": [
        {
          "internalType": "uint256[]",
          "name": "prices",
          "type": "uint256[]"
        }
      ],
      "stateMutability": "pure",
      "type": "function"
    },
    {
      "inputs": [
        {
          "components": [
            {
              "internalType": "address",
              "name": "rewardsAddress",
              "type": "address"
            },
            {
              "internalType": "uint256",
              "name": "amount",
              "type": "uint256"
            },
            {
              "internalType": "bytes32",
              "name": "quoteHash",
              "type": "bytes32"
            }
          ],
          "internalType": "struct IPaymentVault.DataPayment[]",
          "name": "_payments",
          "type": "tuple[]"
        }
      ],
      "name": "payForQuotes",
      "outputs": [],
      "stateMutability": "nonpayable",
      "type": "function"
    },
    {
      "inputs": [],
      "name": "requiredPaymentVerificationLength",
      "outputs": [
        {
          "internalType": "uint256",
          "name": "",
          "type": "uint256"
        }
      ],
      "stateMutability": "view",
      "type": "function"
    },
    {
      "inputs": [
        {
          "components": [
            {
              "components": [
                {
                  "internalType": "enum IPaymentVault.DataType",
                  "name": "dataType",
                  "type": "uint8"
                },
                {
                  "internalType": "uint256",
                  "name": "dataSize",
                  "type": "uint256"
                },
                {
                  "internalType": "uint256",
                  "name": "closeRecordsStored",
                  "type": "uint256"
                },
                {
                  "components": [
                    {
                      "internalType": "enum IPaymentVault.DataType",
                      "name": "dataType",
                      "type": "uint8"
                    },
                    {
                      "internalType": "uint256",
                      "name": "records",
                      "type": "uint256"
                    }
                  ],
                  "internalType": "struct IPaymentVault.Record[]",
                  "name": "recordsPerType",
                  "type": "tuple[]"
                },
                {
                  "internalType": "uint256",
                  "name": "maxRecords",
                  "type": "uint256"
                },
                {
                  "internalType": "uint256",
                  "name": "receivedPaymentCount",
                  "type": "uint256"
                },
                {
                  "internalType": "uint256",
                  "name": "liveTime",
                  "type": "uint256"
                },
                {
                  "internalType": "uint256",
                  "name": "networkDensity",
                  "type": "uint256"
                },
                {
                  "internalType": "uint256",
                  "name": "networkSize",
                  "type": "uint256"
                }
              ],
              "internalType": "struct IPaymentVault.QuotingMetrics",
              "name": "metrics",
              "type": "tuple"
            },
            {
              "internalType": "address",
              "name": "rewardsAddress",
              "type": "address"
            },
            {
              "internalType": "bytes32",
              "name": "quoteHash",
              "type": "bytes32"
            }
          ],
          "internalType": "struct IPaymentVault.PaymentVerification[]",
          "name": "_payments",
          "type": "tuple[]"
        }
      ],
      "name": "verifyPayment",
      "outputs": [
        {
          "components": [
            {
              "internalType": "bytes32",
              "name": "quoteHash",
              "type": "bytes32"
            },
            {
              "internalType": "uint256",
              "name": "amountPaid",
              "type": "uint256"
            },
            {
              "internalType": "bool",
              "name": "isValid",
              "type": "bool"
            }
          ],
          "internalType": "struct IPaymentVault.PaymentVerificationResult[3]",
          "name": "verificationResults",
          "type": "tuple[3]"
        }
      ],
      "stateMutability": "view",
      "type": "function"
    }
  ],
  "bytecode": "0x6080604052348015600f57600080fd5b50604051610f92380380610f92833981016040819052602c916076565b6001600160a01b038116605257604051632d06160b60e21b815260040160405180910390fd5b600080546001600160a01b0319166001600160a01b039290921691909117905560a4565b600060208284031215608757600080fd5b81516001600160a01b0381168114609d57600080fd5b9392505050565b610edf806100b36000396000f3fe608060405234801561001057600080fd5b506004361061007d5760003560e01c80634ec42e8e1161005b5780634ec42e8e146100e2578063b6c2141b1461010d578063c7170bb614610122578063fe3c806e1461012a57600080fd5b806338f03e75146100825780633ffbb252146100ab578063474740b1146100cb575b600080fd5b610095610090366004610a1e565b610188565b6040516100a29190610a60565b60405180910390f35b6100be6100b9366004610a1e565b61034f565b6040516100a29190610ab0565b6100d461020081565b6040519081526020016100a2565b6000546100f5906001600160a01b031681565b6040516001600160a01b0390911681526020016100a2565b61012061011b366004610af3565b6103d8565b005b6100d4600581565b610160610138366004610b6a565b600160205260009081526040902054608081901b90600160801b90046001600160801b031682565b604080516001600160801b031990931683526001600160801b039091166020830152016100a2565b6101906108f7565b600582146101b157604051637db491eb60e01b815260040160405180910390fd5b60006101bd848461051f565b905060005b6003811015610347576000600160008484600381106101e3576101e3610b83565b6020908102919091015160409081015183528282019390935290820160009081208351808501909452546001600160801b0319608082901b168452600160801b90046001600160801b0316918301829052919250600191901580159061025657508183602001516001600160801b031610155b9050600061028b86866003811061026f5761026f610b83565b6020020151602001516001600160801b031960609190911b1690565b84516001600160801b031990811691161480156102cc575060008686600381106102b7576102b7610b83565b6020020151602001516001600160a01b031614155b9050600060405180606001604052808888600381106102ed576102ed610b83565b602002015160400151815260200186602001516001600160801b031681526020018480156103185750835b1515905290508088876003811061033157610331610b83565b60200201525050600190930192506101c2915050565b505092915050565b606060008267ffffffffffffffff81111561036c5761036c610b99565b604051908082528060200260200182016040528015610395578160200160208202803683370190505b50905060005b838110156103d057600060019050808383815181106103bc576103bc610b83565b60209081029190910101525060010161039b565b509392505050565b806102008111156103fc57604051630d67f41160e21b815260040160405180910390fd5b60005b81811015610519573684848381811061041a5761041a610b83565b60600291909101915061044e9050336104366020840184610bcb565b6000546001600160a01b031691906020850135610702565b60408051808201909152806104796104696020850185610bcb565b60601b6001600160801b03191690565b6001600160801b0319168152602083810180356001600160801b03818116948401949094526040808701356000818152600186529190912086519690940151909416600160801b0260809590951c949094179091559091906104db9084610bcb565b6001600160a01b03167ff998960b1c6f0e0e89b7bbe6b6fbf3e03e6f08eee5b8430877d8adb8e149d58060405160405180910390a4506001016103ff565b50505050565b610527610936565b60005b828110156106fb5760006001600086868581811061054a5761054a610b83565b905060200281019061055c9190610be6565b60409081013582526020808301939093529081016000908120825180840184529054608081901b6001600160801b03191682526001600160801b03600160801b918290048116838701908152895186015185526001909652939092205493519094509204811691161115610614576020830180516040850152835190528484838181106105eb576105eb610b83565b90506020028101906105fd9190610be6565b61060690610d66565b8360005b60200201526106f2565b6020808401516040908101516000908152600183522054908201516001600160801b03600160801b909204821691161115610688576020830151604084015284848381811061066557610665610b83565b90506020028101906106779190610be6565b61068090610d66565b83600161060a565b60408084015181015160009081526001602090815291902054908201516001600160801b03600160801b9092048216911611156106f2578484838181106106d1576106d1610b83565b90506020028101906106e39190610be6565b6106ec90610d66565b60408401525b5060010161052a565b5092915050565b604080516001600160a01b038581166024830152848116604483015260648083018590528351808403909101815260849092019092526020810180516001600160e01b03166323b872dd60e01b17905261051991869190600090610768908416836107c0565b9050805160001415801561078d57508080602001905181019061078b9190610e58565b155b156107bb57604051635274afe760e01b81526001600160a01b03841660048201526024015b60405180910390fd5b505050565b60606107ce838360006107d5565b9392505050565b6060814710156107fa5760405163cd78605960e01b81523060048201526024016107b2565b600080856001600160a01b031684866040516108169190610e7a565b60006040518083038185875af1925050503d8060008114610853576040519150601f19603f3d011682016040523d82523d6000602084013e610858565b606091505b5091509150610868868383610872565b9695505050505050565b60608261088757610882826108ce565b6107ce565b815115801561089e57506001600160a01b0384163b155b156108c757604051639996b31560e01b81526001600160a01b03851660048201526024016107b2565b50806107ce565b8051156108de5780518082602001fd5b604051630a12f52160e11b815260040160405180910390fd5b60405180606001604052806003905b60408051606081018252600080825260208083018290529282015282526000199092019101816109065790505090565b60405180606001604052806003905b61094d610963565b8152602001906001900390816109455790505090565b60405180606001604052806109be604080516101208101909152806000815260200160008152602001600081526020016060815260200160008152602001600081526020016000815260200160008152602001600081525090565b815260006020820181905260409091015290565b60008083601f8401126109e457600080fd5b50813567ffffffffffffffff8111156109fc57600080fd5b6020830191508360208260051b8501011115610a1757600080fd5b9250929050565b60008060208385031215610a3157600080fd5b823567ffffffffffffffff811115610a4857600080fd5b610a54858286016109d2565b90969095509350505050565b6101208101818360005b6003811015610aa7578151805184526020810151602085015260408101511515604085015250606083019250602082019150600181019050610a6a565b50505092915050565b602080825282518282018190526000918401906040840190835b81811015610ae8578351835260209384019390920191600101610aca565b509095945050505050565b60008060208385031215610b0657600080fd5b823567ffffffffffffffff811115610b1d57600080fd5b8301601f81018513610b2e57600080fd5b803567ffffffffffffffff811115610b4557600080fd5b856020606083028401011115610b5a57600080fd5b6020919091019590945092505050565b600060208284031215610b7c57600080fd5b5035919050565b634e487b7160e01b600052603260045260246000fd5b634e487b7160e01b600052604160045260246000fd5b80356001600160a01b0381168114610bc657600080fd5b919050565b600060208284031215610bdd57600080fd5b6107ce82610baf565b60008235605e19833603018112610bfc57600080fd5b9190910192915050565b6040805190810167ffffffffffffffff81118282101715610c2957610c29610b99565b60405290565b6040516060810167ffffffffffffffff81118282101715610c2957610c29610b99565b604051610120810167ffffffffffffffff81118282101715610c2957610c29610b99565b604051601f8201601f1916810167ffffffffffffffff81118282101715610c9f57610c9f610b99565b604052919050565b803560048110610bc657600080fd5b600082601f830112610cc757600080fd5b813567ffffffffffffffff811115610ce157610ce1610b99565b610cf060208260051b01610c76565b8082825260208201915060208360061b860101925085831115610d1257600080fd5b602085015b83811015610d5c5760408188031215610d2f57600080fd5b610d37610c06565b610d4082610ca7565b8152602082810135818301529084529290920191604001610d17565b5095945050505050565b600060608236031215610d7857600080fd5b610d80610c2f565b823567ffffffffffffffff811115610d9757600080fd5b8301610120368290031215610dab57600080fd5b610db3610c52565b610dbc82610ca7565b81526020828101359082015260408083013590820152606082013567ffffffffffffffff811115610dec57600080fd5b610df836828501610cb6565b6060830152506080828101359082015260a0808301359082015260c0808301359082015260e0808301359082015261010091820135918101919091528152610e4260208401610baf565b6020820152604092830135928101929092525090565b600060208284031215610e6a57600080fd5b815180151581146107ce57600080fd5b6000825160005b81811015610e9b5760208186018101518583015201610e81565b50600092019182525091905056fea2646970667358221220753415e69ca835f41e469191df2ec65c7858e1fc9c210c5b54c77a49b40d3c9564736f6c634300081c0033",
  "linkReferences": {},
  "deployedLinkReferences": {}
}